{
  "_format": "hh-sol-artifact-1",
  "contractName": "MockUniswapV2Pair",
  "sourceName": "contracts/test/MockUniswapV2Pair.sol",
  "abi": [
    {
      "inputs": [
        {
          "internalType": "address",
          "name": "_token0",
          "type": "address"
        },
        {
          "internalType": "address",
          "name": "_token1",
          "type": "address"
        }
      ],
      "stateMutability": "nonpayable",
      "type": "constructor"
    },
    {
      "inputs": [],
      "name": "getReserves",
      "outputs": [
        {
          "internalType": "uint112",
          "name": "_reserve0",
          "type": "uint112"
        },
        {
          "internalType": "uint112",
          "name": "_reserve1",
          "type": "uint112"
        },
        {
          "internalType": "uint32",
          "name": "_blockTimestampLast",
          "type": "uint32"
        }
      ],
      "stateMutability": "view",
      "type": "function"
    },
    {
      "inputs": [],
      "name": "price0CumulativeLast",
      "outputs": [
        {
          "internalType": "uint256",
          "name": "",
          "type": "uint256"
        }
      ],
      "stateMutability": "view",
      "type": "function"
    },
    {
      "inputs": [],
      "name": "price1CumulativeLast",
      "outputs": [
        {
          "internalType": "uint256",
          "name": "",
          "type": "uint256"
        }
      ],
      "stateMutability": "view",
      "type": "function"
    },
    {
      "inputs": [
        {
          "internalType": "uint112",
          "name": "_reserve0",
          "type": "uint112"
        },
        {
          "internalType": "uint112",
          "name": "_reserve1",
          "type": "uint112"
        }
      ],
      "name": "setReserves",
      "outputs": [],
      "stateMutability": "nonpayable",
      "type": "function"
    },
    {
      "inputs": [],
      "name": "sync",
      "outputs": [],
      "stateMutability": "nonpayable",
      "type": "function"
    },
    {
      "inputs": [],
      "name": "token0",
      "outputs": [
        {
          "internalType": "address",
          "name": "",
          "type": "address"
        }
      ],
      "stateMutability": "view",
      "type": "function"
    },
    {
      "inputs": [],
      "name": "token1",
      "outputs": [
        {
          "internalType": "address",
          "name": "",
          "type": "address"
        }
      ],
      "stateMutability": "view",
      "type": "function"
    }
  ],
  "bytecode": "0x608034608657601f6103ea38819003918201601f19168301916001600160401b03831184841017608b578084926040948552833981010312608657604b602060458360a1565b920160a1565b600080546001600160a01b039384166001600160a01b0319918216179091556001805492909316911617905560405161033590816100b58239f35b600080fd5b634e487b7160e01b600052604160045260246000fd5b51906001600160a01b038216820360865756fe608080604052600436101561001357600080fd5b60003560e01c9081630902f1ac14610288575080630dfe16811461025f5780635909c0d5146102415780635a3d54931461022357806375ea5f2e146101c3578063d21220a71461019a5763fff6cae91461006c57600080fd5b3461014f57600036600319011261014f576000546040516370a0823160e01b815230600482015290602090829060249082906001600160a01b03165afa90811561015c57600091610168575b506001546040516370a0823160e01b815230600482015290602090829060249082906001600160a01b03165afa90811561015c57600091610125575b5060701b600160701b600160e01b03166001600160701b0391909116174260e01b6001600160e01b03191617600255005b90506020813d602011610154575b81610140602093836102c7565b8101031261014f5751386100f4565b600080fd5b3d9150610133565b6040513d6000823e3d90fd5b90506020813d602011610192575b81610183602093836102c7565b8101031261014f5751386100b8565b3d9150610176565b3461014f57600036600319011261014f576001546040516001600160a01b039091168152602090f35b3461014f57604036600319011261014f576004356001600160701b03811680910361014f57602435906001600160701b038216820361014f5760709190911b600160701b600160e01b0316174260e01b6001600160e01b03191617600255005b3461014f57600036600319011261014f576020600454604051908152f35b3461014f57600036600319011261014f576020600354604051908152f35b3461014f57600036600319011261014f576000546040516001600160a01b039091168152602090f35b3461014f57600036600319011261014f576060906002546001600160701b03811682526001600160701b038160701c16602083015260e01c6040820152f35b90601f8019910116810190811067ffffffffffffffff8211176102e957604052565b634e487b7160e01b600052604160045260246000fdfea264697066735822122014844da87d8047f97e55de31812d8819ab7984ffa85477ad11fe7b8eb9dbfdec64736f6c634300081c0033",
  "linkReferences": {},
  "deployedLinkReferences": {}
}