{
  "_format": "hh-sol-artifact-1",
  "contractName": "ECMSale",
  "sourceName": "contracts/ECMSale.sol",
  "abi": [
    {
      "inputs": [
        {
          "internalType": "address",
          "name": "_ecm",
          "type": "address"
        },
        {
          "internalType": "address",
          "name": "_usdt",
          "type": "address"
        },
        {
          "internalType": "address",
          "name": "_pair",
          "type": "address"
        }
      ],
      "stateMutability": "nonpayable",
      "type": "constructor"
    },
    {
      "inputs": [],
      "name": "EnforcedPause",
      "type": "error"
    },
    {
      "inputs": [],
      "name": "ExpectedPause",
      "type": "error"
    },
    {
      "inputs": [
        {
          "internalType": "address",
          "name": "owner",
          "type": "address"
        }
      ],
      "name": "OwnableInvalidOwner",
      "type": "error"
    },
    {
      "inputs": [
        {
          "internalType": "address",
          "name": "account",
          "type": "address"
        }
      ],
      "name": "OwnableUnauthorizedAccount",
      "type": "error"
    },
    {
      "inputs": [],
      "name": "ReentrancyGuardReentrantCall",
      "type": "error"
    },
    {
      "inputs": [
        {
          "internalType": "address",
          "name": "token",
          "type": "address"
        }
      ],
      "name": "SafeERC20FailedOperation",
      "type": "error"
    },
    {
      "anonymous": false,
      "inputs": [
        {
          "indexed": true,
          "internalType": "address",
          "name": "beneficiary",
          "type": "address"
        },
        {
          "indexed": false,
          "internalType": "uint256",
          "name": "ecmAmount",
          "type": "uint256"
        },
        {
          "indexed": true,
          "internalType": "uint256",
          "name": "lockIndex",
          "type": "uint256"
        }
      ],
      "name": "Claim",
      "type": "event"
    },
    {
      "anonymous": false,
      "inputs": [
        {
          "indexed": false,
          "internalType": "uint256",
          "name": "newDuration",
          "type": "uint256"
        }
      ],
      "name": "LockDurationUpdated",
      "type": "event"
    },
    {
      "anonymous": false,
      "inputs": [
        {
          "indexed": true,
          "internalType": "address",
          "name": "previousOwner",
          "type": "address"
        },
        {
          "indexed": true,
          "internalType": "address",
          "name": "newOwner",
          "type": "address"
        }
      ],
      "name": "OwnershipTransferred",
      "type": "event"
    },
    {
      "anonymous": false,
      "inputs": [
        {
          "indexed": true,
          "internalType": "address",
          "name": "by",
          "type": "address"
        },
        {
          "indexed": false,
          "internalType": "address",
          "name": "newPair",
          "type": "address"
        }
      ],
      "name": "PairUpdated",
      "type": "event"
    },
    {
      "anonymous": false,
      "inputs": [
        {
          "indexed": false,
          "internalType": "address",
          "name": "account",
          "type": "address"
        }
      ],
      "name": "Paused",
      "type": "event"
    },
    {
      "anonymous": false,
      "inputs": [
        {
          "indexed": true,
          "internalType": "address",
          "name": "buyer",
          "type": "address"
        },
        {
          "indexed": false,
          "internalType": "uint256",
          "name": "usdtAmount",
          "type": "uint256"
        },
        {
          "indexed": false,
          "internalType": "uint256",
          "name": "ecmAmount",
          "type": "uint256"
        },
        {
          "indexed": false,
          "internalType": "uint256",
          "name": "releaseTime",
          "type": "uint256"
        },
        {
          "indexed": true,
          "internalType": "uint256",
          "name": "lockIndex",
          "type": "uint256"
        }
      ],
      "name": "Purchase",
      "type": "event"
    },
    {
      "anonymous": false,
      "inputs": [
        {
          "indexed": false,
          "internalType": "address",
          "name": "account",
          "type": "address"
        }
      ],
      "name": "Unpaused",
      "type": "event"
    },
    {
      "anonymous": false,
      "inputs": [
        {
          "indexed": true,
          "internalType": "address",
          "name": "owner",
          "type": "address"
        },
        {
          "indexed": false,
          "internalType": "uint256",
          "name": "amount",
          "type": "uint256"
        }
      ],
      "name": "WithdrawECM",
      "type": "event"
    },
    {
      "anonymous": false,
      "inputs": [
        {
          "indexed": true,
          "internalType": "address",
          "name": "owner",
          "type": "address"
        },
        {
          "indexed": false,
          "internalType": "uint256",
          "name": "amount",
          "type": "uint256"
        }
      ],
      "name": "WithdrawUSDT",
      "type": "event"
    },
    {
      "inputs": [],
      "name": "availableECM",
      "outputs": [
        {
          "internalType": "uint256",
          "name": "",
          "type": "uint256"
        }
      ],
      "stateMutability": "view",
      "type": "function"
    },
    {
      "inputs": [
        {
          "internalType": "uint256",
          "name": "usdtAmount",
          "type": "uint256"
        },
        {
          "internalType": "uint256",
          "name": "minECM",
          "type": "uint256"
        }
      ],
      "name": "buyWithUSDT",
      "outputs": [],
      "stateMutability": "nonpayable",
      "type": "function"
    },
    {
      "inputs": [],
      "name": "claimAllUnlocked",
      "outputs": [],
      "stateMutability": "nonpayable",
      "type": "function"
    },
    {
      "inputs": [
        {
          "internalType": "uint256[]",
          "name": "indices",
          "type": "uint256[]"
        }
      ],
      "name": "claimLocks",
      "outputs": [],
      "stateMutability": "nonpayable",
      "type": "function"
    },
    {
      "inputs": [],
      "name": "ecm",
      "outputs": [
        {
          "internalType": "contract IERC20",
          "name": "",
          "type": "address"
        }
      ],
      "stateMutability": "view",
      "type": "function"
    },
    {
      "inputs": [
        {
          "internalType": "uint256",
          "name": "usdtAmount",
          "type": "uint256"
        }
      ],
      "name": "getEstimatedECMForUSDT",
      "outputs": [
        {
          "internalType": "uint256",
          "name": "",
          "type": "uint256"
        }
      ],
      "stateMutability": "view",
      "type": "function"
    },
    {
      "inputs": [
        {
          "internalType": "address",
          "name": "user",
          "type": "address"
        }
      ],
      "name": "getUserLocks",
      "outputs": [
        {
          "internalType": "uint256[]",
          "name": "amounts",
          "type": "uint256[]"
        },
        {
          "internalType": "uint256[]",
          "name": "releaseTimes",
          "type": "uint256[]"
        },
        {
          "internalType": "bool[]",
          "name": "claimed",
          "type": "bool[]"
        }
      ],
      "stateMutability": "view",
      "type": "function"
    },
    {
      "inputs": [],
      "name": "lockDuration",
      "outputs": [
        {
          "internalType": "uint256",
          "name": "",
          "type": "uint256"
        }
      ],
      "stateMutability": "view",
      "type": "function"
    },
    {
      "inputs": [],
      "name": "owner",
      "outputs": [
        {
          "internalType": "address",
          "name": "",
          "type": "address"
        }
      ],
      "stateMutability": "view",
      "type": "function"
    },
    {
      "inputs": [],
      "name": "pair",
      "outputs": [
        {
          "internalType": "contract IUniswapV2Pair",
          "name": "",
          "type": "address"
        }
      ],
      "stateMutability": "view",
      "type": "function"
    },
    {
      "inputs": [],
      "name": "pause",
      "outputs": [],
      "stateMutability": "nonpayable",
      "type": "function"
    },
    {
      "inputs": [],
      "name": "paused",
      "outputs": [
        {
          "internalType": "bool",
          "name": "",
          "type": "bool"
        }
      ],
      "stateMutability": "view",
      "type": "function"
    },
    {
      "inputs": [],
      "name": "renounceOwnership",
      "outputs": [],
      "stateMutability": "nonpayable",
      "type": "function"
    },
    {
      "inputs": [
        {
          "internalType": "uint256",
          "name": "newDuration",
          "type": "uint256"
        }
      ],
      "name": "setLockDuration",
      "outputs": [],
      "stateMutability": "nonpayable",
      "type": "function"
    },
    {
      "inputs": [
        {
          "internalType": "address",
          "name": "newPair",
          "type": "address"
        }
      ],
      "name": "setPair",
      "outputs": [],
      "stateMutability": "nonpayable",
      "type": "function"
    },
    {
      "inputs": [],
      "name": "totalLocked",
      "outputs": [
        {
          "internalType": "uint256",
          "name": "",
          "type": "uint256"
        }
      ],
      "stateMutability": "view",
      "type": "function"
    },
    {
      "inputs": [
        {
          "internalType": "address",
          "name": "newOwner",
          "type": "address"
        }
      ],
      "name": "transferOwnership",
      "outputs": [],
      "stateMutability": "nonpayable",
      "type": "function"
    },
    {
      "inputs": [],
      "name": "unpause",
      "outputs": [],
      "stateMutability": "nonpayable",
      "type": "function"
    },
    {
      "inputs": [],
      "name": "usdt",
      "outputs": [
        {
          "internalType": "contract IERC20",
          "name": "",
          "type": "address"
        }
      ],
      "stateMutability": "view",
      "type": "function"
    },
    {
      "inputs": [
        {
          "internalType": "uint256",
          "name": "amount",
          "type": "uint256"
        }
      ],
      "name": "withdrawAvailableECM",
      "outputs": [],
      "stateMutability": "nonpayable",
      "type": "function"
    },
    {
      "inputs": [
        {
          "internalType": "uint256",
          "name": "amount",
          "type": "uint256"
        }
      ],
      "name": "withdrawUSDT",
      "outputs": [],
      "stateMutability": "nonpayable",
      "type": "function"
    }
  ],
  "bytecode": "0x60c03461019e57601f61164038819003918201601f19168301916001600160401b038311848410176101a35780849260609460405283398101031261019e57610047816101b9565b906100606040610059602084016101b9565b92016101b9565b9133156101885760008054336001600160a01b0319821681178355604051939290916001600160a01b0316907f8be0079c531659141344cd1fd0a4f28419497f9722a3daafe3b4186f6b6457e09080a36001805562ed4e006003556001600160a01b03169081151580610176575b1561014857506080526001600160a01b0390811660a052600280546001600160a01b0319169290911691909117905560405161147290816101ce823960805181818161021b01528181610c63015281816110ab01526112ac015260a0518181816105e1015281816109b801528181610e2d0152610f330152f35b62461bcd60e51b81526020600482015260096024820152683d32b9379030b2323960b91b6044820152606490fd5b506001600160a01b03831615156100ce565b631e4fbdf760e01b600052600060045260246000fd5b600080fd5b634e487b7160e01b600052604160045260246000fd5b51906001600160a01b038216820361019e5756fe608080604052600436101561001357600080fd5b60003560e01c90816304554443146110da575080631b27fc251461109557806323a35de914610f625780632f48ab7d14610f1d5780633ea521ef14610df45780633f4ba83a14610d835780634eb665af14610d375780635689141214610d195780635c975abb14610cf35780637021073d14610c2a578063715018a614610bd15780638187f51614610b5c5780638456cb5914610afa5780638da5cb5b14610ad1578063a8aa1b3114610aa8578063c60209361461093a578063e651372514610553578063e700ff701461035d578063e76dd1e5146101bb578063f2fde38b1461012e5763f8011e2a1461010657600080fd5b34610129576000366003190112610129576020610121611291565b604051908152f35b600080fd5b34610129576020366003190112610129576004356001600160a01b038116908190036101295761015c611339565b80156101a557600080546001600160a01b03198116831782556001600160a01b0316907f8be0079c531659141344cd1fd0a4f28419497f9722a3daafe3b4186f6b6457e09080a3005b631e4fbdf760e01b600052600060045260246000fd5b34610129576000366003190112610129576101d4611362565b6101dc6113c1565b33600052600460205260406000208054801561032d57600091825b82811061027d57838015610245578061021561023f92600554611284565b600555337f0000000000000000000000000000000000000000000000000000000000000000611384565b60018055005b60405162461bcd60e51b815260206004820152601060248201526f1b9bdd1a1a5b99c81d5b9b1bd8dad95960821b6044820152606490fd5b60ff600261028b8385611195565b500154161580610315575b6102a3575b6001016101f7565b926102d460019160026102b68786611195565b5001805460ff1916841790556102cc8685611195565b505490611277565b93806102e08185611195565b50546040519081527f34fcbac0073d7c3d388e51312faf357774904998eeb8fca628b9e6f65ee1cbf760203392a3905061029b565b5060016103228284611195565b500154421015610296565b60405162461bcd60e51b81526020600482015260086024820152676e6f206c6f636b7360c01b6044820152606490fd5b346101295760203660031901126101295760043567ffffffffffffffff8111610129573660238201121561012957806004013567ffffffffffffffff8111610129573660248260051b84010111610129576103b6611362565b6103be6113c1565b3360005260046020526040600020805490600093845b848110156105045760248160051b8301013590848210156104cf576103f98285611195565b5091600283019283549060ff82166104985742600182015411610460576001948561042d9360ff1916179055548099611277565b976040519081527f34fcbac0073d7c3d388e51312faf357774904998eeb8fca628b9e6f65ee1cbf760203392a3016103d4565b60405162461bcd60e51b815260206004820152601060248201526f1b9bdd081e595d081d5b9b1bd8dad95960821b6044820152606490fd5b60405162461bcd60e51b815260206004820152600f60248201526e185b1c9958591e4818db185a5b5959608a1b6044820152606490fd5b60405162461bcd60e51b815260206004820152600d60248201526c0d2dcecc2d8d2c840d2dcc8caf609b1b6044820152606490fd5b85801561051b578061021561023f92600554611284565b60405162461bcd60e51b815260206004820152601060248201526f6e6f7468696e6720746f20636c61696d60801b6044820152606490fd5b346101295760403660031901126101295760043561056f611362565b6105776113c1565b801561090957600254604051630240bc6b60e21b81526001600160a01b039091169190606081600481865afa9081156108c6576004936000916000936108d2575b5060209060405195868092630dfe168160e01b82525afa9384156108c657600094610895575b507f0000000000000000000000000000000000000000000000000000000000000000936001600160a01b0390811690851603610883576001600160701b0391821691165b8015158061087a575b156108425761063d6106429284611244565b611257565b91602435831061081257610654611291565b83116107cd576040516323b872dd60e01b6020820152336024820152306044820152606480820184905281526106949161068f608483611129565b6113e1565b6106a060035442611277565b33600052600460205260406000206040516060810181811067ffffffffffffffff8211176107b757604052848152602081018381526040820192600084528054680100000000000000008110156107b75761070091600182018155611195565b9190916107a157600292518255516001820155019051151560ff8019835416911617905533600052600460205260406000205492600019840193841161078b5761074c81600554611277565b600555604051928352602083015260408201527fd721454499cf9c37b757e03b9d675df451c229048129d6e2d552216a035e6a5560603392a360018055005b634e487b7160e01b600052601160045260246000fd5b634e487b7160e01b600052600060045260246000fd5b634e487b7160e01b600052604160045260246000fd5b60405162461bcd60e51b815260206004820152601860248201527f696e73756666696369656e742045434d20696e2073616c6500000000000000006044820152606490fd5b60405162461bcd60e51b8152602060048201526008602482015267736c69707061676560c01b6044820152606490fd5b60405162461bcd60e51b815260206004820152601060248201526f696e76616c696420726573657276657360801b6044820152606490fd5b5081151561062b565b6001600160701b039081169116610622565b6108b891945060203d6020116108bf575b6108b08183611129565b810190611225565b92846105de565b503d6108a6565b6040513d6000823e3d90fd5b6108f99193506020925060603d606011610902575b6108f18183611129565b8101906111ef565b509290916105b8565b503d6108e7565b60405162461bcd60e51b81526020600482015260096024820152681e995c9bc81554d11560ba1b6044820152606490fd5b3461012957602036600319011261012957600254604051630240bc6b60e21b81526001600160a01b0390911690606081600481855afa9182156108c657600091600093610a7b575b50602060049160405192838092630dfe168160e01b82525afa9081156108c657600091610a5c575b506001600160a01b039081167f000000000000000000000000000000000000000000000000000000000000000090911603610a4a576001600160701b0380911691165b81151580610a41575b15610a0d5760209161063d61012192600435611244565b60405162461bcd60e51b815260206004820152600c60248201526b62616420726573657276657360a01b6044820152606490fd5b508015156109f6565b6001600160701b0391821691166109ed565b610a75915060203d6020116108bf576108b08183611129565b836109aa565b600491935060209250610a9c9060603d606011610902576108f18183611129565b50929092939150610982565b34610129576000366003190112610129576002546040516001600160a01b039091168152602090f35b34610129576000366003190112610129576000546040516001600160a01b039091168152602090f35b3461012957600036600319011261012957610b13611339565b610b1b6113c1565b6000805460ff60a01b1916600160a01b1790556040513381527f62e78cea01bee320cd4e420270b5ea74000d11b0c9f74754ebdbfc544b05a25890602090a1005b34610129576020366003190112610129576004356001600160a01b0381169081900361012957610b8a611339565b806bffffffffffffffffffffffff60a01b60025416176002556040519081527f2daa13478b8265a01977bdca6d2719323c82f5d97ff95449c85592b27f65560460203392a2005b3461012957600036600319011261012957610bea611339565b600080546001600160a01b0319811682556001600160a01b03167f8be0079c531659141344cd1fd0a4f28419497f9722a3daafe3b4186f6b6457e08280a3005b3461012957602036600319011261012957600435610c46611339565b610c4e611362565b610c56611291565b8111610cb957610c8781337f0000000000000000000000000000000000000000000000000000000000000000611384565b6040519081527f609e605d3619fd12caa425909defa72f5ec26bf026db61fe8ff53aba30abd9fa60203392a260018055005b60405162461bcd60e51b8152602060048201526012602482015271616d6f756e74203e20617661696c61626c6560701b6044820152606490fd5b3461012957600036600319011261012957602060ff60005460a01c166040519015158152f35b34610129576000366003190112610129576020600554604051908152f35b34610129576020366003190112610129577f3e062f634a950eae456fa5f8fb53a4f59f55039983bd73df7a34a313b75443d46020600435610d76611339565b80600355604051908152a1005b3461012957600036600319011261012957610d9c611339565b60005460ff8160a01c1615610de35760ff60a01b19166000556040513381527f5db9ee0a495bf2e6ff9c91a7834c1ba4fdd244a5e8aa4e537bd38aeae4b073aa90602090a1005b638dfc202b60e01b60005260046000fd5b3461012957602036600319011261012957600435610e10611339565b610e18611362565b6040516370a0823160e01b81523060048201527f0000000000000000000000000000000000000000000000000000000000000000906020816024816001600160a01b0386165afa9081156108c657600091610eeb575b508211610eb35781610e81913390611384565b6040519081527fb478926c8c08735485a152b83a8579215621d5ad0aa92795fbc030c66ba6df8060203392a260018055005b60405162461bcd60e51b815260206004820152601060248201526f616d6f756e74203e2062616c616e636560801b6044820152606490fd5b90506020813d602011610f15575b81610f0660209383611129565b81010312610129575183610e6e565b3d9150610ef9565b34610129576000366003190112610129576040517f00000000000000000000000000000000000000000000000000000000000000006001600160a01b03168152602090f35b34610129576020366003190112610129576004356001600160a01b038116908190036101295760005260046020526040600020805490610fa182611163565b91610fab81611163565b610fb48261114b565b91610fc26040519384611129565b808352610fce8161114b565b602084019490601f190136863760005b82811061104f576110058787876020611012896040519687966060885260608801906110f5565b90868203848801526110f5565b918483036040860152519182815201919060005b818110611034575050500390f35b82511515845285945060209384019390920191600101611026565b8060ff600261106060019486611195565b50805461106d858d6111c7565b528481015461107c858a6111c7565b5201541661108a82886111c7565b901515905201610fde565b34610129576000366003190112610129576040517f00000000000000000000000000000000000000000000000000000000000000006001600160a01b03168152602090f35b34610129576000366003190112610129576020906003548152f35b906020808351928381520192019060005b8181106111135750505090565b8251845260209384019390920191600101611106565b90601f8019910116810190811067ffffffffffffffff8211176107b757604052565b67ffffffffffffffff81116107b75760051b60200190565b9061116d8261114b565b61117a6040519182611129565b828152809261118b601f199161114b565b0190602036910137565b80548210156111b1576000526003602060002091020190600090565b634e487b7160e01b600052603260045260246000fd5b80518210156111b15760209160051b010190565b51906001600160701b038216820361012957565b9081606091031261012957611203816111db565b916040611212602084016111db565b92015163ffffffff811681036101295790565b9081602091031261012957516001600160a01b03811681036101295790565b8181029291811591840414171561078b57565b8115611261570490565b634e487b7160e01b600052601260045260246000fd5b9190820180921161078b57565b9190820391821161078b57565b6040516370a0823160e01b81523060048201526020816024817f00000000000000000000000000000000000000000000000000000000000000006001600160a01b03165afa9081156108c657600091611304575b50600554808211156112fd576112fa91611284565b90565b5050600090565b906020823d602011611331575b8161131e60209383611129565b8101031261132e575051386112e5565b80fd5b3d9150611311565b6000546001600160a01b0316330361134d57565b63118cdaa760e01b6000523360045260246000fd5b600260015414611373576002600155565b633ee5aeb560e01b60005260046000fd5b60405163a9059cbb60e01b60208201526001600160a01b0390921660248301526044808301939093529181526113bf9161068f606483611129565b565b60ff60005460a01c166113d057565b63d93c066560e01b60005260046000fd5b906000602091828151910182855af1156108c6576000513d61143357506001600160a01b0381163b155b6114125750565b635274afe760e01b60009081526001600160a01b0391909116600452602490fd5b6001141561140b56fea26469706673582212201bc91e9969b8f0c2ab802886d1d9db0b2d4a5e8cf8efbe90f754e359694011ad64736f6c634300081c0033",
  "linkReferences": {},
  "deployedLinkReferences": {}
}